:1000000030350020A1A40000FDC90110FDC9011078
:10001000FDC90110FDC90110FDC90110FDC9011084
:10002000FDC90110FDC90110FDC90110FDC9011074
:0C003000FDC90110FDC901103BCA011000
:10FFA80000008001100088FFFDFF58003AFFBFF3F2
:10FFB800FFFFFFFFFFFFFFFFFFFFFFFFFFFFFFFF49
:10FFC800FFFFFFFFFFFFFFFFFFFFFFFFFFFFFFFF39
:10FFD800C507FEC5FFFFFFFF00FFFFFFC500C5FF08
:10FFE800000000FF00000000FFFFFFFFFFFFFFFF12
:08FFF800FFFFFFFFFFFFFFFF09
:020000020000FC
:020000042000DA
:1004300000000000000000000000000000000000BC
:1004400000000000000000000000000000000000AC
:1005000000000000000000000000000000000000EB
:1005100000000000000000000000000000000000DB
:040000030000A4A1B4
:00000001FF