:10000000B038002089AE0000FDC90110FDC9011003
:10001000FDC90110FDC90110FDC90110FDC9011084
:10002000FDC90110FDC90110FDC90110FDC9011074
:0C003000FDC90110FDC901103BCA011000
:101000003C00000000000000000000003410000060
:1010100000000000000000000100000000000000CF
:1010200000000000000000000000000001000000BF
:0C103000000000000800000000000000AC
:10103C0034000000000000000000000068100000F8
:10104C000000000000000000010000000000000093
:10105C00010000000000000000000000080000007B
:04106C000000000080
:101070003000000000000000000000009810000098
:10108000040000000000000001000000FFFFFFFF5F
:10109000FF00000001000000080000000000000048
:1010A0002C0000000000000000000000C410000040
:1010B000040000000000000001000000FFFFFFFF2F
:0C10C000FFFFFFFF080000000000000020
:1010CC0038140000E410000095A1011091A7011044
:1010DC00A1C2011009B2011041B80110A5BC011048
:0810EC0085BC01102F0000007B
:1010F400280000000000000000000000141100009F
:101104000000000000000000FFFFFFFF00000000DF
:081114000800000000000000CB
:10111C00341400003011000065C2011069C10110C7
:10112C001BC2011091BA011005BC0110E5BB0110E6
:04113C00330000007C
:10114000341400005411000071C20110A5B6011042
:1011500099BF011045B60110B5BA011025BC0110A8
:041160003400000057
:1011640024000000000000000000000080110000C6
:101174000000000000000000000000000800000063
:041184000000000067
:10118800240000000000000000000000A41100007E
:10119800000000000000000000000000080000003F
:0411A8000000000043
:1011AC00240000000000000000000000C811000036
:1011BC00000000000100000000000000080000001A
:0411CC00000000001F
:1011D00000000000480B0020040000000000000098
:1011E000000000002000000070100000300000002F
:1011F0001C110000680B002004000000000000002B
:10120000000000000C000000301300001800000077
:1012100040110000700B00200400000000000000DE
:101220000000000024000000481300001800000027
:1012300000000000CC0B00200400000000000000B3
:101240000000000010000000A01000002C000000B2
:10125000CC100000D40B00200400000000000000AF
:1012600000000000200000006411000024000000C5
:10127000FFFFFFFFF40B002004000000000000004F
:101280000000000028000000881100002400000079
:10129000FFFFFFFF1C0C0020040000000000000006
:1012A00000000000580000003C1000003400000066
:1012B000FFFFFFFF240C00200400000000000000DE
:1012C0000000000010000000601300001800000083
:1012D000FFFFFFFF2C0C00200400000000000000B6
:1012E000000000001C000000AC1100002400000001
:1012F000FFFFFFFF640C002004000000000000005E
:101300000000000038000000F41000002800000079
:10131000FFFFFFFFD00C00200400000000000000D1
:101320000000000054000000001000003C0000001D
:101330001800000000000000000000004013000042
:0813400008000000000000009D
:101348001800000000000000000000005813000012
:08135800080000000000000085
:1013600018000000000000000000000070130000E2
:0813700008000000000000006D
:0813780002000000E011010079
:041384000100000064
:0413880000000E0053
:04138C0000000F004E
:041390003200000027
:041394000100000054
:04139800500B0020D6
:04139C00000200004B
:0413A0000000000049
:0413A400FDC901106E
:0413A8000000000041
:0413AC00000000003D
:0413B0000800000031
:0413B4000000220013
:0413B800940B002072
:0413BC00010000002C
:0413C000DC0B002022
:0413C400080000001D
:0413C8000000000021
:0413CC00000000001D
:0413D0000000000019
:0413D400080000000D
:0413D8000000000011
:0413DC00000000000D
:0413E0000100000008
:0413E4006C0C00206D
:0413E80006000000FB
:0413EC0001000000FC
:0413F000D80C0020F5
:0413F40000000000F5
:0413F80000000000F1
:0413FC0000020000EB
:0414000000000000E8
:021406002900BB
:021408000100E1
:02140A002400BC
:02140C003300AB
:02140E003400A8
:021410002F00AB
:021412000100D7
:0114140001D6
:0814180003000000EC110100CB
:081420000000000000000000C4
:0414280000000100BF
:04142C0000000300B9
:0414300071930000B4
:041434003C14000064
:041438003C14000060
:04143C0000000000AC
:041440009000000018
:041444009000000014
:0414480000000000A0
:04144C00DC0B002095
:04145000058C000007
:041454002000000074
:04145800F811010086
:04145C000C1201006D
:0414600009C30110AB
:0414640005970000E8
:0414680007970000E2
:04146C0095C801100E
:0414700097C8011008
:041474000200000072
:04147800401201001D
:04147C003C07010028
:04148000240701003C
:041484005407010008
:0214880008005A
:02148A00090057
:02148C0001005D
:02148E0000005C
:01149000015A
:041494000000000054
:041498000000000050
:04149C00000000004C
:0414A0000000000048
:0414A4003992000079
:0414A8005592000059
:0414AC0009910000A2
:0414B0008192000025
:0414B4006D91000036
:0414B8002D91000072
:0414BC009D910000FE
:0414C000BD920000D9
:0414C400798B000020
:0414C800F58B0000A0
:0414CC00F98B000098
:0414D0000800000010
:0414D40024000000F0
:0414D80018000000F8
:0414DC0028000000E4
:0414E00020000000E8
:0414E4003C000000C8
:0414E8000C000000F4
:0414EC0034000000C8
:1015000081F0004102E000BF83F0004330B54FEAB4
:1015100041044FEA430594EA050F08BF90EA020F21
:101520001FBF54EA000C55EA020C7FEA645C7FEAB4
:10153000655C00F0E2804FEA5454D4EB5555B8BFD7
:101540006D420CDD2C4480EA020281EA030382EA48
:10155000000083EA010180EA020281EA0303362DDA
:1015600088BF30BD11F0004F4FEA01314FF4801CAD
:101570004CEA113102D0404261EB410113F0004FBF
:101580004FEA03334CEA133302D0524263EB430376
:1015900094EA050F00F0A780A4F10104D5F1200E14
:1015A0000DDB02FA0EFC22FA05F2801841F100016F
:1015B00003FA0EF2801843FA05F359410EE0A5F143
:1015C00020050EF1200E012A03FA0EFC28BF4CF074
:1015D000020C43FA05F3C01851EBE37101F000452A
:1015E00007D54FF0000EDCF1000C7EEB00006EEB37
:1015F0000101B1F5801F1BD3B1F5001F0CD34908C1
:101600005FEA30004FEA3C0C04F101044FEA445217
:1016100012F5800F80F09A80BCF1004F08BF5FEA9E
:10162000500C50F1000041EB045141EA050130BD7E
:101630005FEA4C0C404141EB010111F4801FA4F121
:101640000104E9D191F0000F04BF01460020B1FA76
:1016500081F308BF2033A3F10B03B3F120020CDAAE
:101660000C3208DD02F1140CC2F10C0201FA0CF08C
:1016700021FA02F10CE002F11402D8BFC2F1200CF1
:1016800001FA02F120FA0CFCDCBF41EA0C019040A7
:10169000E41AA2BF01EB0451294330BD6FEA0404F0
:1016A0001F3C1CDA0C340EDC04F11404C4F12002DB
:1016B00020FA04F001FA02F340EA030021FA04F3ED
:1016C00045EA030130BDC4F10C04C4F1200220FA44
:1016D00002F001FA04F340EA0300294630BD21FA82
:1016E00004F0294630BD94F0000F83F4801306BF48
:1016F00081F480110134013D4EE77FEA645C18BF3C
:101700007FEA655C29D094EA050F08BF90EA020FD2
:1017100005D054EA000C04BF1946104630BD91EACA
:10172000030F1EBF0021002030BD5FEA545C05D1CD
:101730004000494128BF41F0004130BD14F580040C
:101740003CBF01F5801130BD01F0004545F0FE4180
:1017500041F470014FF0000030BD7FEA645C1ABFB5
:10176000194610467FEA655C1CBF0B46024650EAEC
:10177000013406BF52EA033591EA030F41F4002118
:1017800030BD00BF90F0000F04BF0021704730B59E
:101790004FF4806404F132044FF000054FF0000173
:1017A00050E700BF90F0000F04BF0021704730B534
:1017B0004FF4806404F1320410F0004548BF404209
:1017C0004FF000013EE700BF42004FEAE2014FEA5E
:1017D00031014FEA02701FBF12F07F4393F07F4F39
:1017E00081F06051704732F07F4208BF704793F03C
:1017F0007F4F04BF41F40021704730B54FF460744F
:1018000001F0004521F000411CE700BF50EA010251
:1018100008BF704730B54FF000050AE050EA0102FA
:1018200008BF704730B511F0004502D5404261EB6A
:1018300041014FF4806404F132045FEA915C3FF4AB
:10184000D8AE4FF003025FEADC0C18BF03325FEA48
:10185000DC0C18BF033202EBDC02C2F1200300FAF9
:1018600003FC20FA02F001FA03FE40EA0E0021FA1E
:1018700002F11444BDE600BF70B54FF0FF0C4CF40C
:10188000E06C1CEA11541DBF1CEA135594EA0C0FBE
:1018900095EA0C0F00F0DEF82C4481EA030621EAF9
:1018A0004C5123EA4C5350EA013518BF52EA033534
:1018B00041F4801143F4801338D0A0FB02CE4FF0E6
:1018C0000005E1FB02E506F00042E0FB03E54FF016
:1018D0000006E1FB03569CF0000F18BF4EF0010E0E
:1018E000A4F1FF04B6F5007F64F5407404D25FEA0A
:1018F0004E0E6D4146EB060642EAC62141EA5551BD
:101900004FEAC52040EA5E504FEACE2EB4F1FD0CFE
:1019100088BFBCF5E06F1ED8BEF1004F08BF5FEA7C
:10192000500E50F1000041EB045170BD06F000462E
:1019300046EA010140EA020081EA0301B4EB5C04DB
:10194000C2BFD4EB0C0541EA045170BD41F48011D3
:101950004FF0000E013C00F3AB8014F1360FDEBFF8
:10196000002001F0004170BDC4F10004203C35DAD4
:101970000C341BDC04F11404C4F1200500FA05F357
:1019800020FA04F001FA05F240EA020001F00042F8
:1019900021F0004110EBD37021FA04F642EB06016E
:1019A0005EEA430E08BF20EAD37070BDC4F10C0498
:1019B000C4F1200500FA04F320FA05F001FA04F25C
:1019C00040EA020001F0004110EBD37041F1000148
:1019D0005EEA430E08BF20EAD37070BDC4F1200553
:1019E00000FA05F24EEA020E20FA04F301FA05F2BB
:1019F00043EA020321FA04F001F0004121FA04F263
:101A000020EA020000EBD3705EEA430E08BF20EA32
:101A1000D37070BD94F0000F0FD101F0004640006C
:101A200041EB010111F4801F08BF013CF7D041EAEE
:101A3000060195F0000F18BF704703F000465200F2
:101A400043EB030313F4801F08BF013DF7D043EAC3
:101A50000603704794EA0C0F0CEA135518BF95EA79
:101A60000C0F0CD050EA410618BF52EA4306D1D100
:101A700081EA030101F000414FF0000070BD50EA1F
:101A8000410606BF1046194652EA430619D094EAA9
:101A90000C0F02D150EA013613D195EA0C0F05D193
:101AA00052EA03361CBF104619460AD181EA0301E7
:101AB00001F0004141F0FE4141F470014FF000009F
:101AC00070BD41F0FE4141F4780170BD70B54FF03A
:101AD000FF0C4CF4E06C1CEA11541DBF1CEA1355BA
:101AE00094EA0C0F95EA0C0F00F0A7F8A4EB05049C
:101AF00081EA030E52EA03354FEA013100F0888093
:101B00004FEA03334FF0805545EA131343EA12635B
:101B10004FEA022245EA111545EA10654FEA002610
:101B20000EF000419D4208BF964244F1FD0404F5C9
:101B3000407402D25B084FEA3202B61A65EB030525
:101B40005B084FEA32024FF480104FF4002CB6EBE2
:101B5000020E75EB030E22BFB61A754640EA0C0062
:101B60005B084FEA3202B6EB020E75EB030E22BFA2
:101B7000B61A754640EA5C005B084FEA3202B6EBE3
:101B8000020E75EB030E22BFB61A754640EA9C00A2
:101B90005B084FEA3202B6EB020E75EB030E22BF72
:101BA000B61A754640EADC0055EA060E18D04FEA30
:101BB000051545EA16754FEA06164FEAC30343EAD0
:101BC00052734FEAC2025FEA1C1CC0D111F4801F9D
:101BD0000BD141EA00014FF000004FF0004CB6E796
:101BE00011F4801F04BF01430020B4F1FD0C88BF35
:101BF000BCF5E06F3FF6AFAEB5EB030C04BFB6EB40
:101C0000020C5FEA500C50F1000041EB045170BD32
:101C10000EF0004E4EEA113114EB5C04C2BFD4EB5F
:101C20000C0541EA045170BD41F480114FF0000EE3
:101C3000013C90E645EA060E8DE60CEA135594EA5F
:101C40000C0F08BF95EA0C0F3FF43BAF94EA0C0F62
:101C50000AD150EA01347FF434AF95EA0C0F7FF4D7
:101C600025AF104619462CE795EA0C0F06D152EA2B
:101C700003353FF4FDAE1046194622E750EA41060F
:101C800018BF52EA43067FF4C5AE50EA41047FF420
:101C90000DAF52EA43057FF4EBAE12E74FF0FF3C85
:101CA00006E000BF4FF0010C02E000BF4FF0010C56
:101CB0004DF804CD4FEA410C7FEA6C5C4FEA430CCF
:101CC00018BF7FEA6C5C1BD001B050EA410C0CBF1E
:101CD00052EA430C91EA030F02BF90EA020F002080
:101CE000704710F1000F91EA030F58BF994208BFE7
:101CF00090422CBFD8176FEAE37040F001007047A4
:101D00004FEA410C7FEA6C5C02D150EA013C07D1FA
:101D10004FEA430C7FEA6C5CD6D152EA033CD3D045
:101D20005DF8040B704700BF8446104662468C463F
:101D30001946634600E000BF01B5FFF7B7FF002872
:101D400048BF10F1000F01BD4DF808EDFFF7F4FF9B
:101D50000CBF012000205DF808FB00BF4DF808ED26
:101D6000FFF7EAFF34BF012000205DF808FB00BF49
:101D70004DF808EDFFF7E0FF94BF012000205DF86B
:101D800008FB00BF4DF808EDFFF7CEFF94BF012020
:101D900000205DF808FB00BF4DF808EDFFF7C4FF19
:101DA00034BF012000205DF808FB00BF4FEA41026C
:101DB00012F5001215D211D56FF47873B3EB62529D
:101DC00012D94FEAC12343F0004343EA505311F0C4
:101DD000004F23FA02F018BF404270474FF0000056
:101DE000704750EA013005D111F0004008BF6FF094
:101DF000004070474FF00000704700BF4A0011D20A
:101E000012F5001211D20DD56FF47873B3EB625254
:101E10000ED44FEAC12343F0004343EA505323FA60
:101E200002F070474FF00000704750EA013002D1D5
:101E30004FF0FF3070474FF00000704753B94AB978
:101E4000002908BF00281CBF4FF0FF314FF0FF30C2
:101E500000F074B9ADF1080C6DE904CE00F006F89D
:101E6000DDF804E0DDE9022304B070472DE9F04716
:101E70008C460446089E002B4BD18A42154667D9F2
:101E8000B2FA82F24AB1C2F1200701FA02F320FA53
:101E900007F7954047EA030C94404FEA154EBCFB08
:101EA000FEF71FFA85F80EFB17C307FB08F9210C94
:101EB00041EA0343994509D9EB1807F1FF3180F056
:101EC0001C81994540F21981023F2B44A3EB090381
:101ED000B3FBFEF00EFB103300FB08F1A4B244EAA2
:101EE0000344A14209D92C1900F1FF3380F0078186
:101EF000A14240F2048102382C4440EA0740002706
:101F0000641A1EB10023D440C6E900433946BDE837
:101F1000F0878B4209D9002E00F0EC800027C6E93B
:101F2000000138463946BDE8F087B3FA83F7002F41
:101F300048D18B4202D3824200F2FB80841A61EBCB
:101F4000030301209C46002EE0D0C6E9004CDDE7EB
:101F500002B9FFDEB2FA82F2002A40F08F80012738
:101F6000491B4FEA15481FFA85F9B1FBF8FE08FB3B
:101F70001E1109FB0EF04FEA144C4CEA0143984243
:101F800007D9EB180EF1FF3102D2984200F2CD8052
:101F90008E461B1AB3FBF8F008FB103309FB00F95F
:101FA000A4B244EA0344A14507D92C1900F1FF3338
:101FB00002D2A14500F2B6801846A4EB090440EA1B
:101FC0000E409EE7C7F12005BB4022FA05FC4CEA13
:101FD000030C21FA05F44FEA1C4EB4FBFEF91FFA7C
:101FE0008CF80EFB194420FA05F3B94009FB08FAF6
:101FF00019430B0C43EA0444A24502FA07F200FA23
:1020000007F30BD91CEB040409F1FF3080F0888042
:10201000A24540F28580A9F102096444A4EB0A04B8
:10202000B4FBFEF00EFB104400FB08FA89B241EA53
:102030000444A24508D91CEB040400F1FF316BD223
:10204000A24569D90238644440EA0940A0FB0289EC
:10205000A4EB0A044C454146CE4654D351D0002E41
:1020600069D05A1A64EB0E0404FA05F522FA07F354
:10207000FC401D43C6E90054002747E79540C2F1E4
:10208000200321FA03F04FEA1548B0FBF8F71FFAD6
:1020900085F908FB170024FA03F3914007FB09FCBC
:1020A0000B43190C41EA00418C4504FA02F407D9AC
:1020B000691807F1FF3031D28C452FD9023F2944EE
:1020C000A1EB0C01B1FBF8F008FB101C00FB09FEB2
:1020D00099B241EA0C418E4507D9691800F1FF33E6
:1020E00018D28E4516D902382944A1EB0E0140EAD8
:1020F00007473AE73746304608E70F46E6E6184610
:10210000FBE64345ABD2B8EB020169EB0C020138A8
:102110009646A4E71846E8E7084695E70746CFE75E
:1021200081467BE702382C4447E7AEF1020E2B4490
:102130002FE7384607E73746E8E600BF704700BF9D
:10214000034613F8012B002AFBD1181A01387047F7
:1021500008B504F075FA044803F020FE00B1FEE76C
:1021600000F076F808BD00BFD8AE000070B5054697
:102170000E460022142104F015F8002418E0002275
:102180000A21284604F00EF8C4F1070246FA02F2CA
:1021900002F001020921284604F004F801220A2174
:1021A000284603F0FFFF082007F025FD0134E4B2C4
:1021B000072CE4D900220A21284603F0F3FF01226C
:1021C0001421284603F0EEFF4FF42F7007F013FDA3
:1021D00070BD000010B586B00F4A04AB92E8030052
:1021E00083E80300194601A803F0D8FE0446002244
:1021F000142103F0D7FF012007F0FDFC0122142178
:10220000204603F0CFFF4FF40C7007F0F4FC20469B
:1022100003F094FF06B010BDBCAE000030B589B02D
:10222000FFF7D8FF03AC094D0FCD0FC42B68236017
:1022300003A9684603F0B2FE0446B921FFF796FFF2
:10224000204603F07BFF09B030BD00BFC4AE0000E4
:1022500008B5FFF7E3FF08BD014B1868704700BFE2
:10226000B4200020034A1368002119711B68136011
:1022700018797047B42000202DE9F043BDF81C60A8
:102280009E4606F108077C4207F0030804F00304A9
:1022900058BFC4F10008C8F1040C07EB0C0404FBA0
:1022A00003F39A422BDB5FFA88F8C8F104085FFA5F
:1022B00088F80A46002517E05FFA8CF33B4405FBDB
:1022C00003F3CA184FF0000982F80490547904F01F
:1022D000FC0469F383045471D68002F1080406EB10
:1022E00008094C44CC500135AE45E5DC1160016075
:1022F00000234360034A11601846BDE8F0830120C3
:10230000FBE700BFB420002002460023184604E08B
:1023100030BC704752080133DBB28B4211D212F04D
:10232000010FF7D030B44C1EE51A0124AC40204315
:1023300052080133DBB28B42EAD212F0010FF7D020
:10234000F1E77047002011E048F2050181EA4303FC
:102350009BB2013AD2B22AB113F4004FF4D15B0020
:102360009BB2F6E7054A22F810300130FF2804DC62
:1023700083B21B029BB20822EDE77047B820002011
:10238000F8B507460E4600254FF6FF740DE008210C
:10239000785DFFF7B9FFC0B280EA1420074B33F92C
:1023A000103083EA0424A4B20135B542EFDB1021DA
:1023B0002046FFF7A9FFC04380B2F8BDB820002037
:1023C00030B587B06C46114D0FCD0FC495E80300B2
:1023D00044F8040B24F8021B090C21700C4C172341
:1023E00023800C4A1078C0B2431CDBB213700A225F
:1023F0000DF10E0108F008FC22886946064808F035
:1024000005FC064807F0EDFA07B030BD18B0000033
:10241000F82400205C100020D8230020B8230020DE
:1024200010B588B00021052003F04CFB00210420EA
:1024300003F048FB0021052003F044FB274900205E
:1024400003F040FB002003F011FB254B0022114656
:102450002448006801F02CFC01A807F06DF9012167
:1024600001A807F079F900B1FEE704464FF4806156
:1024700001A807F07FF954EA000300D0FEE708A99D
:10248000022341F8203D01A807F06CF9164B002209
:1024900011461448006801F00BFC0023134A01A9FF
:1024A00007A807F06BF900B1FEE708A9012341F87E
:1024B000203D01A807F056F90D4B002211460948AE
:1024C000006801F0F5FB00230A4A01A906A807F0FD
:1024D00055F900B1FEE7002008B010BD000003016F
:1024E00048B00000B423002064B00000D92D0000E3
:1024F0007CB000001535000010B588B0FFF728FE4D
:1025000001F0E8FB00214FF0804001F09DFB234BE0
:10251000186000B9FEE72249224803F03FFD224B34
:102520001860C0B1214903F06FFE1F4C2F221D21FE
:10253000206803F0AFFE30221E21206803F0AAFEBF
:1025400002A807F0F9F80121019102A807F004F9A7
:10255000044640B1FEE7164B002211460F480068C2
:1025600001F0A6FBFEE701A902A807F0FBF84FF473
:10257000806102A807F0FEF854EA000300D0FEE7ED
:1025800000230C4A02A907A807F0F8F800B1FEE7FB
:1025900008F03EFC002008B010BD00BFB4230020AE
:1025A0005805002050100020F4240020C123000012
:1025B00030B000002124000008B502F40000002122
:1025C00050EA010300D108BDFFF746FE027A01324E
:1025D000074B1A8000F10901064808F017FBFFF7C6
:1025E00041FE054B01221A70044807F0FAF9EAE7A8
:1025F000D4230020B92200207C100020B823002022
:1026000000B583B0134B002211461348006801F057
:102610004FFB01210D2003F0D9FA1049104B0B623A
:10262000104BCB61CB7B43F00303CB73F8230B75CB
:102630008B7B43F006038B730B4B18684FF400023F
:102640000023CDE90023094B002203F083F803B0F7
:102650005DF804FB50B20000B42300200406002003
:10266000182500206010002080100020B9250000EF
:1026700008B501220146244B186803F0F7F8032837
:1026800029D00AD8012816D01DD8204B0022114687
:102690001F48006801F00CFB08BD812823D0822868
:1026A00029D00428F8D11B4B002211461848006895
:1026B00001F0FEFAF0E7184B0022114614480068BA
:1026C00001F0F6FAE8E7154B0022114610480068C1
:1026D00001F0EEFAE0E7124B002211460C480068C8
:1026E00001F0E6FAD8E70F4B0022114608480068CF
:1026F00001F0DEFAD0E70C4B0022114604480068D6
:1027000001F0D6FAC8E700BF8010002094B00000A6
:10271000B423002000B10000A8B00000C8B0000041
:10272000E0B0000014B1000030B1000000B9FEE7D5
:1027300030B58BB00446AC4D00686168A268E368B0
:102740000FC52069286003A803F09EF8637C002B66
:102750006AD1A64B00221146A548006801F0A8FAEC
:10276000A44D0E21284603F09DF8A34B1B68588307
:102770000E21284603F096F8A04B1B6858830E21C3
:10278000284603F08FF89E4B1B6858830023194698
:102790009C4A32F8230048F6A302904235D0013318
:1027A000DBB2984A52F82120B2F1FF3FEFD100236B
:1027B0001946954A32F8230048F6A302904229D0E0
:1027C0000133DBB2904A52F82120B2F1FF3FEFD142
:1027D000002319468D4A32F8230048F6A30290429E
:1027E0001DD00133DBB2894A52F82120B2F1FF3FFC
:1027F000EFD12378052B00F2A081DFE813F01B0155
:1028000047016D015A01800193017E4A804842F8D8
:102810002300C4E77C4A7E4842F82300D0E77B4A85
:102820007B4842F82300DCE77A4B002211467048CF
:10283000006801F03DFAE268237C03EB4303990052
:102840000A449388B3F5597F56D040F293329342AD
:1028500040F0C280704B002211466548006801F0CC
:1028600027FA6E4D1921284603F01CF8624B1B68AD
:1028700058831921284603F015F8604B1B685883CC
:102880001921284603F00EF85D4B1B68588300237E
:1028900019465C4A32F8230048F6A302904200F041
:1028A0008C800133DBB2574A52F82120B2F1FF3F4E
:1028B000EED100231946544A32F8230048F6A30209
:1028C00090427FD00133DBB24F4A52F82120B2F15F
:1028D000FF3FEFD1002319464C4A32F8230048F657
:1028E000A302904273D00133DBB2484A52F8212050
:1028F000B2F1FF3FEFD17CE7494B002211463C4843
:10290000006801F0D5F9474D1921284602F0CAFFA9
:10291000394B1B6858831921284602F0C3FF374BF7
:102920001B6858831921284602F0BCFF344B1B68F2
:10293000588300231946334A32F8230048F6A3028D
:1029400090422BD00133DBB22E4A52F82120B2F153
:10295000FF3FEFD1002319462B4A32F8230048F6F7
:10296000A30290421FD00133DBB2274A52F8212044
:10297000B2F1FF3FEFD100231946244A32F8230079
:1029800048F6A302904213D00133DBB21F4A52F83B
:1029900021106FF080529142EED12AE7194A224865
:1029A00042F82300CEE7184A1F4842F82300DAE72E
:1029B000164A1D4842F82300E6E7124A1B4842F82F
:1029C00023006EE7104A194842F823007AE70F4ABD
:1029D000164842F8230086E7154B002211460448AA
:1029E000006801F065F9FEE76810002044B10000BE
:1029F000B42300204CC600008C0700209007002064
:102A00009807002004080020B80800206C09002066
:102A1000A388FB006CB10000A8B10000CCC6000088
:102A200090B10000A4C60000A3880100A3880300A1
:102A3000C0B1000003AB4F4A4F49504802F06CF858
:102A40004F4B18602378002B7FD0E168237C0C2249
:102A500002FB03134B4909689B88CB81E068237C08
:102A600002FB0303DB880B8200220023CDE9002355
:102A700000231A464248006802F0E0FE424B002262
:102A800011464248006801F013F970E0E268237CC7
:102A90000C2101FB03233E4A12689B8813840DEB33
:102AA00001033C490968354802F036F8344B186098
:102AB000C8E7E268237C0C2101FB0323364A126835
:102AC0009B8813840DEB0103344909682B4802F0FD
:102AD00023F82B4B1860B5E7E268237C0C2101FB3F
:102AE00003232F4A12689B8813840DEB01032D49A1
:102AF0000968224802F010F8214B1860A2E7E2684A
:102B0000237C0C2101FB0323274A12689B88138432
:102B10000DEB010325490968184801F0FDFF184B2A
:102B200018608FE703AB224A1268224909681348EC
:102B300001F0F2FF124B186084E71F4B0022114690
:102B40001248006801F0B4F8FEE700220023CDE946
:102B5000002300231A4619490948006802F06EFE56
:102B6000174B002211460948006801F0A1F80BB08C
:102B700030BD00BFDC05002040060020881000208A
:102B8000801000208807002024B20000B423002019
:102B90008C070020A007002098070020B007002025
:102BA00090070020A807002094070020AC07002011
:102BB0009C070020A4070020DCB10000C405002011
:102BC00004B2000070B582B06C4B18686C4A136890
:102BD000591C11606B4E3288019200936A4B00229F
:102BE000114601F065F800210D2002F0EFFF338857
:102BF0007BB36649CB73664B4B610B7B6FF303036F
:102C00000B73644B186800220023CDE900230023D6
:102C10001A4602F013FE04460D46B5F1805F08BF68
:102C2000002C51D0B5F1805F08BF012C1ED3B5F147
:102C3000005F08BF002C4FD0B5F1804F08BF002CBB
:102C400018D1554B002211464C48006801F030F86D
:102C50001FE0524B00221A80514B80221A70514BB8
:102C600001221A70504806F0BCFED6E7002D08BFBE
:102C7000022C07D04D4B002211464048006801F05D
:102C800017F8FEE74A4B002211463C48006801F065
:102C90000FF83E4B5B889BB2B3F5605F56D023D8EC
:102CA00043F20442934241D043F20542934245D05D
:102CB000B3F5505F2CD000933E4B002211462F48B5
:102CC000006800F0F5FF2FE03B4B002211462B4837
:102CD000006800F0EDFFDCE7384B00221146274882
:102CE000006800F0E5FFD4E743F60402934235D0D4
:102CF00043F60602934239D043F603029342DAD1F7
:102D00002F4B002211461D48006800F0D1FF0BE058
:102D1000224B00221A80224B80221A70214B012262
:102D20001A70214806F05DFE02B070BD254B0022EE
:102D300011461248006800F0BBFFF5E7224B002265
:102D400011460E48006800F0B3FFEDE71F4B00226C
:102D500011460A48006800F0ABFFE5E71C4B002273
:102D600011460648006800F0A3FFDDE7194B00227A
:102D700011460248006800F09BFFD5E7B42300200D
:102D800058130020F8240020F4B200002806002088
:102D9000D82300208010002058B30000D423002046
:102DA000D0240020F0240020D424002070B30000A0
:102DB00010B3000034B4000028B3000040B300009A
:102DC000DCB300008CB30000A8B30000C4B3000063
:102DD000FCB3000018B4000030B583B000221146E7
:102DE0003B4806F0EDFD38B13A4B002211463A4817
:102DF000006800F05DFFFEE700221146374806F04C
:102E0000DFFD38B1364B002211463348006800F030
:102E10004FFFFEE7FA23009302234FF40272314979
:102E20003148FFF729FA38B1304B002211462A48C1
:102E3000006800F03DFFFEE74FF440310C2002F047
:102E400041FE2B4B002211462348006800F030FF62
:102E5000284801234374FFF769FCFFF7D1FB0446C0
:102E60000EE0254B002211461B48006800F020FFB1
:102E70002046FFF7FDFBFFF7A5FEFFF7C1FB044669
:102E8000134806F0B3FD1D4B1B78002BE9D000253D
:102E90001A4B1D702046FFF7EBFBFFF7B1FB044612
:102EA000174B93F90730174A13700B4A10680093B9
:102EB000154B2A46294600F0FBFE144B81221A705E
:102EC000134B01221A70134806F08BFDD8E700BFA0
:102ED000B823002068B20000B4230020FC240020A6
:102EE00084B200005011002060100020A4B2000045
:102EF000BCB2000074050020ECB200007C10002081
:102F000018250020B8220020E0B20000D0240020C4
:102F1000F0240020D424002008B507F029FF044B3A
:102F200001221A70034806F05CFD07F035FF08BD6A
:102F30005C130020D424002070B582B004460E46F5
:102F400015460B4B186800940A4B0022114600F0FE
:102F5000AFFE094B00221A741C605E609D60074B37
:102F60001C60074B1E60074B1D6002B070BD00BFA8
:102F7000B42300205CB600003C270020342600204B
:102F8000B4050020AC0500208078022800D87047E6
:102F90000320FCE70278407840EA0220704710B531
:102FA000431813F8022C13F8014C44EA02240239A6
:102FB000FFF7E6F9844214BF0020012010BD000095
:102FC00070B5022809D003286FD0504B002211465B
:102FD0004F48006800F06CFE8CE04E4B002211461A
:102FE0004B48006800F064FE4B4B19884B4B186847
:102FF000FFF7D5FF40B3494B1D682846FFF7C4FFD4
:103000000446474B18702846FFF7C4FF0546F8B141
:103010000CB1812C05D144BB424A43492846FFF7F5
:103020008BFF4249424B186804F0C8F890B3042063
:10303000404B1870404B00221A70404B404A1A60B7
:10304000012102F0C3FD55E0012000F00FF951E02D
:103050000024314B1C60042000F0FAF9364B1C7040
:103060000121042002F0B2FD44E0AE1E2D4C324698
:103070003449204607F0CAFD31462046FFF780F963
:103080006B1EE054000AA055274A21462846FFF748
:1030900053FFC6E72C4B002211461D48006800F084
:1030A00007FE002000F0E2F8C1E7284B002211469D
:1030B0001748006800F0FCFD2548FFF76BFF1A4A2F
:1030C00024490230FFF738FF1849194B186804F0FB
:1030D00075F880B10420174B1870174B00221A7036
:1030E000164B174A1A60012102F070FD01210320DE
:1030F00002F06CFD70BD184B0022114604480068B8
:1031000000F0D6FD002000F0B1F8E3E7F0B40000D5
:10311000B42300205CB4000034260020AC0500205D
:103120002825002038250020442600203C270020A8
:1031300024250020B80500205C130020B0050020E5
:1031400051340000D823002080B40000A8B400004F
:10315000BC050020B8220020C8B4000008B505282E
:1031600044D0062809D0022832D0304B0022114624
:103170002F48006800F09CFD1EE02E4B00221146F7
:103180002B48006800F094FD2B4A4FF0FF3313608A
:1031900093802A490620FFF7CFFE2949294B18685A
:1031A00004F00CF848B1284B02221A700021274B7A
:1031B0001970042002F00AFD08BD254B00221146BB
:1031C0001B48006800F074FD002000F04FF8EAE7AB
:1031D000204B002211461648006800F069FD1E4B86
:1031E0001E4A1A600220FFF7EBFEE5E71C4B0022A7
:1031F00011460F48006800F05BFD0121042002F039
:10320000E5FC0F4B1B7C33B9134B164A1A600620A2
:1032100000F074F8D0E70C4B07221A70094B1868BD
:1032200003F0D0FF104806F0E1FBEDE798B5000091
:10323000B423002008B50000382600202C250020EB
:103240003C27002024250020B80500205C13002026
:1032500028B500004CB50000B0050020C12F0000CB
:1032600070B50000FD320000D4240020F0B587B016
:1032700018B1012809D007B0F0BD1A4B0022114641
:103280001948006800F014FDF5E7184E3068184B37
:103290001B68991E425C034413F8014C44EA022463
:1032A000FFF76EF8104D01900094124B002211466A
:1032B000286800F0FDFC33681A7859789C78DE782D
:1032C0001F795B792868059304970396029401910E
:1032D0000092094B0022114600F0EAFC0620FFF79D
:1032E0003DFFC8E708B70000B4230020AC0500206C
:1032F0003426002028B700005CB7000070B5052810
:1033000078D0062809D003285BD03E4B0022114616
:103310003D48006800F0CCFC47E03C4B00221146E1
:103320003948006800F0C4FC0121042002F04EFC82
:10333000374B81221A70374C0023E370364B1B78D1
:10334000A370364E33881A0A227063700421204617
:10335000FFF716F8030A23716071314D3188284652
:10336000FFF70EF83388020AEA540133E8542D4A75
:1033700021460620FFF7E0FD2B492C4B186803F08F
:103380001DFF98B10024244B1C70294B294A1A6058
:103390000325294B1D70294B1C702146042002F087
:1033A00015FC2146284602F011FC70BD244B00227A
:1033B00011461548006800F07BFC0020FFF756FF1F
:1033C000E0E70121032002F001FC1E4B0022114620
:1033D0000D48006800F06CFC104B1B8833B1144B97
:1033E000194A1A600320FFF7EBFDDEE7042000F026
:1033F0002FF8DAE7154B002211460348006800F069
:1034000057FCD2E73CB60000B4230020B8B500005A
:1034100028250020BC050020D0240020D423002033
:10342000B82200202C2500203C2700202425002045
:10343000B0050020FD320000B80500205C1300201C
:10344000D4B50000F4B50000C12F000014B6000090
:1034500010B5042802D005283AD010BD204B002218
:1034600011462048006800F023FC1F4B1B7843B92D
:103470001E4B196879B91E4B00221A801D4806F0B0
:10348000B0FA1D4B1B78E3B11C4B1D4A1A60062095
:10349000FFF734FFE1E789B21A4B1868FFF77FFDA9
:1034A00018B90120FFF7E2FED7E7104B1C68A21EF7
:1034B000144B1968144807F0A9FB023C0C4B1C8004
:1034C000DCE70E4B114A1A600620FFF747FEC4E7FF
:1034D0000F4B002211460348006800F0E9FBBCE7EF
:1034E00080B70000B42300202825002034260020C7
:1034F000F8240020B8230020D0240020B0050020AC
:10350000FD320000AC050020D82300205D31000012
:10351000A0B7000010B58AB003F0FAFD4FF4802187
:10352000032002F0CFFA4FF48021042002F0CAFAFF
:103530000121032002F04AFB0121042002F046FB96
:10354000404B002211464048006800F0B1FB0024C7
:103550003E4B1C703E4B1C70FEF7F4FE224621468B
:103560003C4806F02DFA38B13B4B224621463648FE
:10357000006800F09DFBFEE702A803F011FE0323A4
:103580008DF8203001238DF81430344A04928DF8E0
:10359000083002A9002003F0E3FD314B186080B130
:1035A000294C304B00221146206800F081FB2E4B45
:1035B00000221146206800F07BFB0620FFF7CEFDBD
:1035C00023E02A4B002211461F48006800F070FBE0
:1035D000FEE7019B01330193019BB3F5E16FF8D343
:1035E000234B1B783BB1234B1B68234A1078984729
:1035F0001F4B00221A701F4B1B6805209847144B65
:1036000000221A70134806F0F1F9194B1B783BB1F0
:10361000184B1B68184A10789847154B00221A70EF
:103620000B4B1B78002BEDD0124B1A68134B9A42B0
:10363000E8D0104B1A68124B9A42E3D00023019352
:10364000CAE700BF78B60000B4230020D0240020D1
:10365000F0240020D424002094B60000192F00008C
:1036600024250020D0B60000ECB60000B0B6000063
:103670005C130020B0050020B8050020C12F000019
:103680005134000008B54FF476721449144807F01D
:10369000BDFA144B00221A70173B01221A70043B2A
:1036A00002221A70023303221A70373304221A706E
:1036B000033B05221A702A3B06221A70343B07226C
:1036C0001A70203308221A70033309221A70383B0B
:1036D0000A221A708833044A1A6008BDC0B7000075
:1036E0001C04002190030021750600212DE9F04300
:1036F0004FF0350C154B164A01E023464A46D2F8E6
:103700000480D2F808E0D76816695569946902F117
:103710002009D06911681960C3F80480C3F808E073
:10372000DF601E615D619C6103F12004D861BCF122
:10373000010CE2D1156A546A906AD16A126B1D625B
:103740005C629862D9621A63BDE8F08300C0002110
:1037500098BF00002DE9F0414FF0200C0E4A0F4BAE
:10376000D3F80480D3F808E0DF681E695D699C69BE
:10377000D86919681160C2F80480C2F808E0D760FF
:10378000166155619461D06120332032BCF1010C87
:10379000E6D1BDE8F08100BF0080002198BB0000A9
:1037A00008B54FF476721449144807F02FFA144BF9
:1037B00000221A70173B01221A70043B02221A7071
:1037C000023303221A70373304221A70033B052296
:1037D0001A702A3B06221A70343B07221A702033D3
:1037E00008221A70033309221A70383B0A221A7011
:1037F0008833044A1A6008BD88E400001C040021D4
:1038000090030021750600212DE9F0434FF0350C9F
:10381000154B164A01E023464A46D2F80480D2F8F6
:1038200008E0D76816695569946902F12009D069E2
:1038300011681960C3F80480C3F808E0DF601E61F6
:103840005D619C6103F12004D861BCF1010CE2D1FF
:10385000156A546A906AD16A126B1D625C62986242
:10386000D9621A63BDE8F08300C0002100C70000E0
:1038700008B54FF476721449144807F0C7F9144B91
:1038800000221A70173B01221A70043B02221A70A0
:10389000023303221A70373304221A70033B0522C5
:1038A0001A702A3B06221A70343B07221A70203302
:1038B00008221A70033309221A70383B0A221A7040
:1038C0008833044A1A6008BD38EC00001C0400214B
:1038D00090030021750600212DE9F0434FF0350CCF
:1038E000154B164A01E023464A46D2F80480D2F826
:1038F00008E0D76816695569946902F12009D06912
:1039000011681960C3F80480C3F808E0DF601E6125
:103910005D619C6103F12004D861BCF1010CE2D12E
:10392000156A546A906AD16A126B1D625C62986271
:10393000D9621A63BDE8F08300C00021E8F30000FB
:1039400008B54FF476721449144807F05FF9144B28
:1039500000221A70173B01221A70043B02221A70CF
:10396000023303221A70373304221A70033B0522F4
:103970001A702A3B06221A70343B07221A70203331
:1039800008221A70033309221A70383B0A221A706F
:103990008833044A1A6008BD60E800001C04002156
:1039A00090030021750600212DE9F0434FF0390CFA
:1039B000174B184A01E023464A46D2F80480D2F851
:1039C00008E0D76816695569946902F12009D06941
:1039D00011681960C3F80480C3F808E0DF601E6155
:1039E0005D619C6103F12004D861BCF1010CE2D15E
:1039F000176A566A956AD46A106B516B926B1F6294
:103A00005E629D62DC62186359639A63BDE8F0836D
:103A100000800021B4CD00002DE9F0434FF0350CBB
:103A2000114B124A01E023464A46D2F80480D2F8EC
:103A300008E0D76816695569946902F12009D069D0
:103A400011681960C3F80480C3F808E0DF601E61E4
:103A50005D619C6103F12004D861BCF1010CE2D1ED
:103A6000126A1A62BDE8F08300C00021F0D40000A1
:103A70002DE9F0434FF01F0C144B154A01E023468B
:103A80004A46D2F80480D2F808E0D768166955692A
:103A9000946902F12009D06911681960C3F80480A3
:103AA000C3F808E0DF601E615D619C6103F12004E2
:103AB000D861BCF1010CE2D1146A506A916AD26AF1
:103AC0001C6258629962DA62BDE8F08300800021CE
:103AD00094DB00002DE9F0434FF0280C114B124A03
:103AE00001E023464A46D2F80480D2F808E0D768BD
:103AF00016695569946902F12009D0691168196045
:103B0000C3F80480C3F808E0DF601E615D619C615A
:103B100003F12004D861BCF1010CE2D1126A1A62EF
:103B2000BDE8F08300C0002184DF000008B54FF439
:103B300076721449144807F069F8144B00221A7081
:103B4000173B01221A70043B02221A70023303222F
:103B50001A70373304221A70033B05221A702A3B6D
:103B600006221A70343B07221A70203308221A707A
:103B7000033309221A70383B0A221A708833044A28
:103B80001A6008BD10F000001C0400219003002101
:103B9000750600212DE9F0414FF0200C0E4A0F4B25
:103BA000D3F80480D3F808E0DF681E695D699C697A
:103BB000D86919681160C2F80480C2F808E0D760BB
:103BC000166155619461D06120332032BCF1010C43
:103BD000E6D1BDE8F08100BF008000219CFA000022
:103BE0002DE9F0434FF0350C154B164A01E0234602
:103BF0004A46D2F80480D2F808E0D76816695569B9
:103C0000946902F12009D06911681960C3F8048031
:103C1000C3F808E0DF601E615D619C6103F1200470
:103C2000D861BCF1010CE2D1156A546A906AD16A7C
:103C3000126B1D625C629862D9621A63BDE8F08300
:103C400000C000219CFE00002DE9F047DFF85C90E9
:103C5000144F99F80030002918BF0F469BB1054654
:103C60000026114CB542A246D4F8008010D0D8F8F6
:103C70001C30984728420BD199F800300136B342E6
:103C800004F10C04EED84FF0000A5046BDE8F0876E
:103C9000D8F804303946204698470028ECD05046E2
:103CA000BDE8F0875005010010AF00001CAF000018
:103CB00000B9704708B430B584B0036808AC00940C
:103CC0001D69079B0394A84704B0BDE8304001B0CC
:103CD000704700BF38B5084B1D785DB1074C05EB48
:103CE000450504EB8505236820461B680C3498477E
:103CF000AC42F8D138BD00BF1CAF000010AF0000CF
:103D0000704700BF704700BF6FF00100704700BFF1
:103D10004FF08040704700BFF0B5044600278BB0DD
:103D2000866801A8656803F09BFF7368012007930C
:103D30008DF8057004F022FE686070B103F048FF52
:103D400001A9307803F06CFF286030B13A460421B5
:103D500003F03AFF20460BB0F0BD00200BB0F0BDE1
:103D6000F8B5D0E901546868A1681E46069F04F0C2
:103D700029FE00B1F8BD218A3B4632460239E0688F
:103D800004F05CFEE6683046FEF7DAF90D230A21FE
:103D90003354E368821C03445970E168286803F0D7
:103DA0006DFF6868BDE8F84004F014BE10B54468C3
:103DB000206803F005FF002360682360BDE8104021
:103DC00004F0F2BD704700BF704700BF70B50546F4
:103DD00004F0ACFD1B4C064694F83430206823EA0E
:103DE000050384F8343038B39C3004F06BFD62680E
:103DF00005462AB102F19C0004F064FD0543EDB2D2
:103E000094F8343003B935B13046BDE8704004F061
:103E10009DBD002BF8D1A36A002BF5D01A6A92073A
:103E2000F2D53046DD6904F091FD00220221A06A3E
:103E3000A8470023A36270BD6268002AE9D0054646
:103E4000D8E700BF601300200720FFF7BFBF00BF07
:103E50002DE9F84F876E04460D469046994607B106
:103E6000B847D4E9186706EA080A07EA090B5AEACC
:103E70000B032FD0DFF860C00021634604E001315E
:103E8000082903F138031BD0B3F93400A842F6D156
:103E90001A699442F3D1C1EBC1000CEBC00090F859
:103EA00037201206EBD5A16ED0E9082322EA0A05D5
:103EB00023EA0B06C4E91CABC0E90856816001E0A7
:103EC000C4E91CAB002304F14000A366BDE8F84F31
:103ED00004F080BDBDE8F88FC013002010B5134C6E
:103EE000236859684B681BB1B0B998472368596873
:103EF0008868B8B10E4A1368002BFCD00023136009
:103F000010B1804723685968CB6803B19847BDE872
:103F10001040084805F03ABF05F072FF23685B685F
:103F20005B68E2E7CB68002BE4D110BDB015002040
:103F30001C100440010007062DE9F04B184E1948EB
:103F4000356905F0A1FF184A04461368176803F0A5
:103F50002003034007F4602710D07DB1D5E90801A4
:103F60004FF0000B43EA01094BEA00084FF40051FF
:103F7000C5E908890D48B56104F05AFD3C4001D1FE
:103F8000BDE8F08B0A4A002192F86130094843EA03
:103F9000544482F86140BDE8F04B04F049BD00BFD5
:103FA0008015002020000E000C1004407816002020
:103FB000F8150020AC160020064B074A70B51568AE
:103FC0005C6804F033FD234601462846BDE8704096
:103FD000184700BFA0150020B01500202DE9F04FB4
:103FE000264C83B024683CB1A14202D10AE0A14230
:103FF00007D02468002CFAD1A046404603B0BDE8A3
:10400000F08F0C46074601912169DFF870A0B94294
:10401000009316464FF000080AF1080BDFF8609095
:10402000256808D0002EE8D02C46002DE5D0216967
:104030002568B942F6D194F837C0009B4CF0040CC7
:104040002146504684F837C07BB194F837E0019B95
:104050004EF0080E99F834C084F837E01B694CF034
:10406000010CC9F8283089F834C001F08FFC2146D2
:10407000584601F075FC08F10108D3E780150020CF
:10408000601300202DE9F0478946044616469846FD
:104090009DF8207004F04AFCB9F1FF3F05463BD083
:1040A000514900220B4604E00132082A03F138038B
:1040B0002BD0B3F934004845F6D118698442F3D1C6
:1040C000C2EBC20201EBC20999F837301B063AD5A0
:1040D000DFF82CA1DAF810304B453ED0DAF8143076
:1040E0004B453AD03B46424649462046FFF776FFCD
:1040F00048B33E4B1B78012B64D0042B62D00221C5
:104100003B4804F095FC832400E00324284604F097
:104110001DFC2046BDE8F087DFF8E4A0DAF8103097
:1041200013B11B699C4254D0DAF8143093B11B6967
:104130009C420FD1DAF81490B9F1000FE5D099F84C
:1041400037301B06C4D40424284604F0FFFB204665
:10415000BDE8F087DAF80090EEE7DAF810304BB1FE
:104160000123DAF81020B34092F837100B43DBB28A
:1041700082F83730DAF814304BB10123DAF8142022
:10418000B34092F837100B43DBB282F8373019484E
:10419000194B002E08BF184605F0F8FD7FB11749EE
:1041A00099F8373091F83400D9F8102043F008031B
:1041B00040F001008A6281F8340089F83730B8F1A4
:1041C000000F09D18324284604F0C0FB2046BDE837
:1041D000F087DAF81090AFE73B46DAF80010204697
:1041E0000122FFF7FBFEEDE7C0130020A015002021
:1041F0007816002001000204010001046013002071
:10420000801500200A4B1A69596902B101B1704743
:104210001B68002BFBD093F83710C906F7D512693D
:104220001B699A42F3D14FF40041024804F000BCEC
:10423000801500207816002038B5114B194200D1A6
:1042400038BD012005F008FD01280FD032210D4BAB
:104250000D481B68B1FBF3F1012938BF012104F0BF
:104260003FFBBDE83840084804F03CBB0025074C44
:1042700007490848084A094B256048601A6038BD5C
:1042800004000020D4270020981300201C100440B4
:10429000A0150020115300006016002000100440FB
:1042A00008B54FF0FF3005F065FD830700D408BD69
:1042B0004FF48051BDE80840014804F0B9BB00BF8D
:1042C000781600208A0000D47047F0B5002485B02D
:1042D00005462046FFF702FE5B495C4B5C4A0C60DA
:1042E00001201A6005F01EFF40F60A03012240F685
:1042F00002015848AE6803804480037B64F30303E3
:1043000003734460437B62F30303328843738A423E
:10431000748070D0B2F5C15F6DD0737E64F3820398
:1043200073766B7C002B00F08280338B64F309136F
:104330003383002334466B7440F60A0707E01A887B
:10434000BA42A2F6030105D0012903D91C466368CD
:10435000002BF4D1404A637B12686FF30303606063
:1043600063732AB1D3681B88A3F60303012B5AD9C0
:104370002B8DB3B105F12803436000230127427B55
:1043800095F8341063F30302427395F8352063F314
:10439000030167F303026B85EB6285F8341085F83F
:1043A00035206946304605F077FD684605F01CFE6D
:1043B000254A1368002BFCD00023284D13602849A0
:1043C0006B7B696013B302F0A1FB0028FBD002F005
:1043D000C1FB0020234B1C491C4A5C680860166026
:1043E0003CB19B68DB0704D51F4B3246186801219E
:1043F000A04705B0F0BD737C6FF3820373746B7CD0
:10440000DBB1338A6FF30913338292E7012005F0A1
:1044100023FC0128DDD00121637B144A61F30303EF
:1044200063736A60D5E70022114B1A60B9E72D2249
:10443000338B62F3091333837BE72D22338A62F3D4
:104440000913338275E700BF1C10044000100440BC
:1044500001010E046016002080150020A015002028
:104460001153000054AF0000B01500203942000085
:1044700074160020090576D504212DE9F0414C4F32
:10448000804638684B4C036A84B05A07217002D5C5
:10449000C3690022984700224749484804F04CFA73
:1044A0003B68474A5B6862609A68002A79D00020BE
:1044B0004449454B454A08601A600120FFF70EFD4C
:1044C000002340F60201404A3E4C4148D8F80860BB
:1044D00023601060328873808A4245D0B2F5C15F94
:1044E00042D0328B63F309123283344640F60A021B
:1044F00007E019889142A1F6030505D0012D03D9E3
:104500001C466368002BF4D1012100223148637BF3
:10451000006861F30303C068637303886260A3F6F5
:1045200003038B4241D9B8F8283013BB69463046A3
:1045300005F0B2FC684605F057FD22490B68002BD8
:10454000FCD00023244A204854680B600B600660AE
:1045500034B19368DB0703D5324638680121A047A0
:1045600004B0BDE8F0817047338A6FF309133382DA
:10457000BBE7637B98F8345098F83500A8F82A20F8
:10458000C8F82C2062F3030562F3030361F3030010
:1045900008F1280288F8345088F8350062606373A7
:1045A000C4E7DB68002B82D187E70C4B1A60BDE7BC
:1045B000B0150020A0150020A1420000B815002071
:1045C000115300001C100440001004405100070665
:1045D00001010E048015002054AF0000F0150020EA
:1045E000042801D00020704710B504460E4804F09E
:1045F00069F908B9002010BD0B4804F061F90B4BB4
:104600001B6803FB00F0B0F5967FF3D2064804F078
:104610006BF9052001F0FCFF0122054B21460548FE
:104620005A7304F005FAE5E798130020D427002018
:10463000A0150020781600202DE9F84F0D4692466F
:104640009B46804604F0F0F9334900220B4604E013
:104650000132082A03F138033CD0B3F93440AC42AC
:10466000F6D1D3F81090C145F2D1C2EBC20401EBF0
:10467000C40494F837E004F1370C1EF0800FE7D043
:104680009CF80030190625D59CF800301A0727D170
:10469000D4E908234AF00A065F4602EA060A03EA5A
:1046A0000B0B5AEA0B0325D1A2681C4B9A4203D08C
:1046B000A268C8F86820A360C9E9186704F0BCF9CB
:1046C0004FF0FF3109F1400004F07CF9D9E91C01F9
:1046D000BDE8F88F04F0B0F902200021BDE8F88FA2
:1046E00004F0AAF994F837301B07FBD1022000210F
:1046F000BDE8F88F04F0A0F9D4E9089A06EA0900A9
:1047000007EA0A0129EA00022AEA0103C8E91C01B2
:10471000C4E90823BDE8F88FC0130020513E000013
:1047200010B5044604F002F9034A137823431370CA
:10473000BDE8104004F00AB9F51500202DE9F84352
:104740000024244EDFF89C90234FDFF89C8035191D
:10475000A87A012804D02034602CF8D1BDE8F88371
:1047600095F90930113300FA03F3DA43C9F8002050
:104770003A6813433B6095F909309840C0B2FFF79F
:10478000CFFF98F80030022B0ED0112395F90910B5
:1047900096F861208B401343DBB200210F4886F866
:1047A000613004F045F9D6E70D48204405F0EEFAF3
:1047B000C0B20128E9D1A86940B198F80030022BB5
:1047C000E3D105F0E3FAC0B20128DED10223AB72D7
:1047D000C1E700BFF81500200C100440AC16002003
:1047E0000816002008100440A015002038B5054622
:1047F00004F09CF8084B0446187820EA050018706D
:104800001B781B0703D40821044804F011F9204643
:10481000BDE8384004F09AB8F5150020781600205D
:10482000054B9A8BDB8B12B21BB29A4200D07047B9
:104830000820FFF7DBBF00BF80150020F8B5574DFB
:10484000AC68002C4CD0E26892B11388A3F6030345
:10485000012B73D9202307E013F0FF0308D0118840
:10486000A1F60301012969D95268013B002AF3D15D
:104870000021A368A26AA162DBB194F8373003F08B
:104880000703022B00F08180042B00F08280012BB3
:1048900072D0002394F83710080705D594F8371024
:1048A000490718BF43F08073A668B4F93410206933
:1048B000B04704F03BF800220646EB8B3848013342
:1048C000C3F30B03EB8384F8372001F035F830464F
:1048D00004F03CF8EA8BAB8B12B21BB29A4200D0C8
:1048E000F8BD236993F8C030002B0CBF05200720CA
:1048F000FFF76CFA2B4A20691368984208BF536887
:1049000090F8C02052BB016823B193F8C040BCB3FB
:1049100083F8C02059B34B1CE2D0234B00F178043C
:104920001B682046B1FBF3F1012938BF012103F0D8
:10493000D7FF2046BDE8F84003F0D4BF10685168A7
:104940002669D2F808C0D768B062F162C6F830C0F4
:10495000776310695169B063F16389E7002280F8D9
:10496000C02023B193F8C01051B183F8C0200820B3
:10497000BDE8F840FFF73ABF00224FF0005389E747
:104980001B68994238BF1946C4E700224FF08043A4
:1049900080E700224FF080537CE700BF80150020A5
:1049A0008815002060130020D42700202DE9F8434B
:1049B000044603F0BBFFA37A05461BB301221D4941
:1049C00094F90930096802FA03F6CF07F0B21ED451
:1049D00000234FF000084FF00009C4E90033C4E998
:1049E0000489154AA3722372A36192F8603092F889
:1049F0006210334382F8603011B1013982F86210DD
:104A0000FFF7F4FE2846BDE8F84303F09FBF0B49CB
:104A100009680906DCD5113302FA03F3DB43084EBB
:104A2000084F3168194031603B6094F9093002FA4F
:104A300003F6CDE740210840F815002000000440AF
:104A40000C100440081004402DE9F04B2F4D82B0AB
:104A500095F8613043B1002495F861302341DB07BC
:104A60000FD40134032CF7D195F8613013B902B09B
:104A7000BDE8F08B0021264802B0BDE8F04B03F002
:104A8000D7BF95F8616003F051FF112295F86130AE
:104A9000A24023EA020385F8613003F057FF620168
:104AA000A818837AF6B2002BDED0102190F9097095
:104AB000184BA1403B449B003142AC58D3F80090C6
:104AC000D0F804800DD1037A022B15D0FFF76EFFCA
:104AD000CDF800903946204600224FF00063C047D1
:104AE000C2E7FFF763FF0023394600932046002208
:104AF0004FF00073C047B7E74FF0000CD0E9042334
:104B000002F0805B5BEA0C03E0D0E1E7F8150020DF
:104B1000AC160020250C01102DE9F043714E904693
:104B20008BB032680F46002900F0D680B8F1000F34
:104B300000F0D68001260446087806FA00F01040FE
:104B400058D0002140461D4605F0EAFAC4E9017834
:104B500003F0ECFEDFF8FC91804699F80070B74254
:104B600000F2B880002F48D05F4B721C404643F8DB
:104B7000264089F8002003F0E9FE002D00F09C801B
:104B800001232A68A869298A22606A6820626374FE
:104B90006182002A00F08B800023E2602374534B73
:104BA000EA68C4E90633636102B1A2616B6903B1CB
:104BB000E361AB6803B16361A022002104F1280026
:104BC00006F02FF8002104F1400003F0C1FE684612
:104BD00003F080FE6B460022454904F17800029400
:104BE00003F042FE6B460022424904F19C0003F0B0
:104BF0003BFE20460BB0BDE8F08301F021FD3E4AAC
:104C00003E4E136803A843F00203136003F0E4FE72
:104C1000737803AA3A493B48059303F0E5FE03AADB
:104C200039493A4803F0E0FE03A803F087FE96F8FE
:104C300000C003AB364A19213648CDF810C003F046
:104C400055FE03AB344A1A21344803F04FFE3B466D
:104C50003A463349334803F007FE3B46324A0421C3
:104C6000324801F01FFCB378002B2FD1304800F000
:104C700057FE304800F054FE0023072605204FF46D
:104C8000FA712D4A2D4F13602D4A13702D4A13705F
:104C90001373936053732C4B576083F860602B4AF7
:104CA000114B1060C3E9021199F800605DE740F60E
:104CB000C4122374E26072E7254E03AD0FCE0FC518
:104CC00096E8070085E8070003AD59E70E2001F0DC
:104CD00059FDCBE703F03AFE00200BB0BDE8F083AE
:104CE000404687E7D421084060130020C93D0000FA
:104CF00021480000493E00000020094054AF000058
:104D0000B93F000078160020494A0000AC16002088
:104D10002D500000B8150020393F0000D4150020A8
:104D20003157000098130020E1450000E0160020F4
:104D3000881500208015002074160020FD51000009
:104D4000F5150020A0150020F8150020B41500204E
:104D500074050100F41500202DE9F04803F0E6FD8C
:104D60001A4B1B78022B2AD003F0F0FD04F0D4FE7E
:104D700010F5003441F100056B016001001B43EAAE
:104D8000D46161EB05018B018201121A43EA906341
:104D900063EB0103D90041EA5271D00000220619E9
:104DA00041EB05070A4D3C022969350244EA1664C5
:104DB000A81844EB01010C462046BDE8F088054BDD
:104DC0001C6803F0C3FD2046BDE8F088A015002054
:104DD00060160020043004401D4B1B6853B1D96895
:104DE0000A7B02F00F02022A08D00023012203608E
:104DF000104670471A4603601046704770B5044667
:104E000014481A6990F86230508A03EB8303D6681D
:104E100003EB830303448D681E44FFF79DFF281AAC
:104E2000800806F57A73984207D9B0F1405F04D242
:104E3000831B012B38BF012300E00023064A2360B7
:104E400011680122B3FBF1F31046236070BD00BF6F
:104E500080150020F8150020D4270020F0B53B4C29
:104E600083B02568C5B163690BB103B0F0BD226999
:104E70002B693AB1226912699A42F6D195F8372026
:104E8000D106F2D5324E32689A420BD04FF480618F
:104E9000304803F0CDFDE8E702212E4803F0C8FDBD
:104EA00003B0F0BD01A8FFF797FF20B1019B13B13C
:104EB0002369002B43D00820FFF732FC95F83730E8
:104EC0002248DA0626D500F037FD6061D5E90614E0
:104ED000C843214B18601A681142FBD1E0431F4BB5
:104EE0001F4A1F68ED6839431960106053F8082C99
:104EF0002846144343F8084C04F048FF2B88B3F5C8
:104F0000C15F10D00AD840F6020293420BD0FFF7DF
:104F100079F9AAE700F010FD2061D7E7A3F5605307
:104F2000063B012BF3D80F4B5C68002CEFD09B683D
:104F3000DB07ECD52A4630680121A047E7E7636923
:104F4000002BB8D10820FFF751FC8EE78015002018
:104F5000B0150020781600201010044014100440F2
:104F60000810044054AF00002DE9F04F00252A4BF3
:104F7000A8461C4683B01A1DCDE90032274F284EA3
:104F8000A3F110092368BBB12368986904F0F2FE0D
:104F9000D4F800E0D4F800C0DEF82810DCE90823DB
:104FA0009B4642EA000A014310F00A0FCEF828108F
:104FB000CCE908AB18D188B915B9019C0125E1E706
:104FC000B8F1000F03D04146164803F031FDFFF75A
:104FD000B5FB03B0BDE8F04FFFF740BF236848F4CE
:104FE0008048C9F81830E7E722683B6892690E48A4
:104FF00022F0020223EA02033B6022683368D2698E
:1050000048F0020823EA02033360216800F0A8FC9C
:1050100000232360D0E700BF901500201410044047
:105020000C100440781600208815002038B54FF089
:10503000FF3004F09FFE184C184B626805469A42F8
:105040000AD0174B1D4200D138BD4FF00051BDE8CA
:105050003840144803F0ECBC00221349134803F015
:105060006BFC0222124B22701868826800F1280142
:1050700002E08B4203D01A465368002BF9D1537BD0
:105080001B0704D140F60903428D9A42D9D0FFF79D
:1050900055FBFFF7E3FED4E7A015002011530000F5
:1050A0000200004078160020694F0000B81500206B
:1050B000B01500202DE9F04F002485B00460804633
:1050C00003A8FFF789FE2E4D01904FF0FF362046D2
:1050D0002C46DFF8B0B0DFF8B0A005F16007A37A86
:1050E00043B3237A022B45D0DBF8001095F86220F9
:1050F0004B8AC86802EB8202034402EB820203EB94
:10510000020962690092FFF727FE009A101A8008D0
:1051100009F57A72904204D9B0F1405FA0EB09031F
:105120001DD30023DAF800200120B3FBF2F39E42E6
:1051300028BF1E462034A742D1D1019B3BB1039B1F
:1051400088B90198C8F8003005B0BDE8F08F002894
:10515000FAD00120C8F8006005B0BDE8F08F012B3F
:1051600038BF0123DEE79E4228BF1E460120C8F853
:105170000060F1E7019E002EEBD00026E9E700BFBA
:10518000F8150020B0150020D427002010B5184BCA
:1051900082B01B78022B22D0012B14D0042B12D00A
:1051A00003F0C4FB044601A8FFF784FFE0B10199B6
:1051B00059B9104803F098FB04210F4803F038FC5C
:1051C000204603F0C3FB02B010BD012938BF012106
:1051D000084803F085FB074803F084FBF0E719203B
:1051E00003F0A8FB02B010BD024803F07DFBE7E727
:1051F000A0150020981300207816002070B511F03B
:1052000002050C464ED14A0700D470BD04F084FC60
:10521000314B324A1B681060314E002B4ED01C6956
:1052200033685BB19C4209D0236A5B0704D52A46E8
:10523000E36904212046984701236374346062685F
:10524000284B127802201A6001F0E2F9112001F0D7
:1052500099FA0122244B254C9B782270002B33D0E5
:1052600033685B689A68002A32D000202049214BBD
:10527000214A08601A6007200021204B204A18604C
:10528000204B106811601868196013681E4943F0BC
:10529000804343F00203136019206160BDE8704051
:1052A00003F046BBFFF7CAFA0B4B9B6843B144F0CF
:1052B00002011648BDE8704003F0BABB3468BEE78F
:1052C000BDE87040FFF762BF0E2001F05BFAC7E750
:1052D000DB68002BC9D1CEE78015002074160020B2
:1052E000B0150020D021084054AF0000A0150020C8
:1052F0001C10044000100440510007060000046028
:105300001410044018100440C54200007816002014
:105310002DE9F0414B0482B00C4600F18E808F00E5
:1053200005464AD4880700F1D880610500F1DE8087
:10533000A20400F1AE80E30440F1F880904E3068A2
:10534000826800F1280102E08B4203D01A465368BC
:10535000002BF9D1537B1F070CD140F60903428D76
:105360009A4207D1AF69284600224FF000736FF4CC
:105370008071B84700228349834803F0DDFA022296
:10538000824B834D1A702F6804F0C6FB814A316846
:1053900013685B1A18BF012327B1C01B000B02332F
:1053A00042F82300002324F480542B60FFF7EEFE24
:1053B000002C3BD102B0BDE8F08103F0B7FA0646FD
:1053C000042004F049FC002847D1304603F0BEFA1F
:1053D0006B4B1868826800F1280102E08B4203D011
:1053E0001A465368002BF9D1537B1E0713D140F6A0
:1053F0000903428D9A420ED14FF00073AE6900222C
:105400006FF480712846B047634B1B68002B00F097
:10541000A480FFF7BBFE24F000546E6928460022EA
:105420004FF080630021B047002CC3D021465B4879
:1054300003F0FEFA02B0BDE8F08103F077FA564BB4
:1054400002469D691DB1AE6A16F0020630D01046C4
:1054500003F07CFA24F48044AAE72B7C002BB4D020
:105460004F4B1F68002FB0D004F056FBEA68C31BF7
:105470001B0B934238BF9B1840F6980238BF5B085D
:10548000EB60A3F59673934284BF40F6C413EB60C0
:105490009BE7414B9B6943B19A6832B19D6818699B
:1054A000998E002209B22023A84724F400547FE7F4
:1054B000AF6AAB6A23EA0703AB6203F047FAAB6853
:1054C000002BC7D0002FC5D0D5F808802869A98E39
:1054D0003A46334609B2C047BCE7FFF7AFF92E4B57
:1054E0009B68002BA2D124F0020461E703F01EFAAE
:1054F000294B07461D689DB1214E306810B17830A8
:1055000003F0F2F92B69336004F006FB204A1F4BCD
:105510001060244A4FF4006120485A6003F088FA72
:10552000384603F013FA24F4806441E7200417D4CA
:1055300021077FF53DAF1C4B1A78120708D41B7862
:105540001B0605D401A8FFF7B5FD78B3019B6BBB23
:10555000FFF71CFE24F008042AE744F002045AE78F
:105560000D4B1A693AB1D3685B88002BFBD0D36826
:105570005B88012BF7D0FFF709FE24F4004417E7FE
:10558000B0150020694F0000B8150020A0150020BC
:10559000F0150020601300208015002078160020F0
:1055A0007416002075440000F515002001274D4DAC
:1055B00005F16006AB7A002B6DD12035AE42F9D1F2
:1055C00003230027484E494D30682B70783003F094
:1055D0008BF9474A474B116817601A6846493A46A3
:1055E0001F60464803F0A8F9384604F09BFD04F01C
:1055F00093FA434BAA681B68C31A1B0BD9438A4210
:105600008CBF4FF0FF339B182A7BAB6022B13D4A21
:105610001268B3EBC22F07D93B4B1B68DF0743D49B
:10562000012200232A73AB6004F0C4FB0022374F31
:1056300037497B680A602BB1B968890702D5022116
:1056400030689847022000F03FFF112000F08CFFE7
:10565000304B1B781BB93068403003F0BBF9BB7886
:1056600013B90E2000F080FF6B7B23B100230520CF
:105670006B7300F029FF0022274B2A70D88B9B8B7D
:10568000264A1BB200B298420CBF072002206A6073
:10569000FEF79CFB5CE795F90900AF7207FA00F092
:1056A000C0B2FFF7A3F888E71D4B1B681806B7D5F3
:1056B000002240F6090101201A4B1B4F19805A8025
:1056C000597B60F303015973197B184862F3030196
:1056D00019735A603A6003605A8802F44062002AE3
:1056E000FAD09DE7F8150020B0150020A015002085
:1056F000141004400C1004402D500000B815002078
:1057000074160020B41500204021084054AF00005A
:1057100000000460F415002080150020FD510000F9
:1057200000000440601600201C10044000100440DB
:10573000054A064B52689A4203D00421044803F0FC
:1057400077B9FFF723BD00BFA0150020115300005B
:10575000781600202DE9F04F85B007468B4692461B
:10576000019303F0E3F800248046314EE500291B45
:1057700006EBC10191F8373001F137091B060BD553
:105780000134082CF2D16FF00104404603F0DEF83A
:10579000204605B0BDE8F08F07F17800CDE902B1F1
:1057A00003F0A2F8DDE90E01202319408C46214ABE
:1057B0000399104040F0020BC1E906BC81F836A005
:1057C00080204FF0000C4FF0000A4FF0000B1A4AF7
:1057D000029BB2F81CE0CB600EF1010E019BCEF3F0
:1057E0000B0EA2F81CE08B60B2F81CE00F6189F888
:1057F0000000A1F834E0C1E908AB104687F8C0C04A
:10580000019200F0ADF8019A13696BB1FEF7FAFC52
:105810002C1B06EBC404B4F93440404603F096F860
:10582000204605B0BDE8F08FFFF7B0FCF0E700BF01
:10583000C0130020FFEFFF9F8015002030B583B01C
:10584000DDE90645CDE900450446FFF783FF011E6B
:1058500008DB204600224FF0E04303B0BDE83040B3
:10586000FEF7EABE0020002103B030BD00B5C2F350
:10587000800383B00093C2F3400302F00102FEF7FD
:1058800001FC03B05DF804FB30B40446044D0FCDB9
:105890000FC495E8070084E8070030BC704700BFDC
:1058A0007405010011F1800F35D0F0B590F900605A
:1058B00000247F2E2AD083784278C57842EA0322DA
:1058C00005F03F05154B42EA05429A421ED0B1420F
:1058D0001CDB9C46431D0EE05A789F78DD7842EA37
:1058E000072205F03F0542EA0542624503F1050340
:1058F00008D08E4206DC93F9006001347F2E04EB61
:10590000840EE9D1704450F8040CF0BD6FEA945055
:105910006FEA8050F0BDD0F801007047FFFF3F00F4
:1059200010B5044603F002F80023C4E90033BDE8D3
:10593000104003F00BB800BF38B5054602F0F6FF83
:105940002C6824B123682B602BB100225A6002F02E
:10595000FDFF204638BD6B6002F0F8FF204638BDE1
:1059600038B505460C4602F0E1FF00226B68C4E939
:1059700000232BB11C606C60BDE8384002F0E6BF2C
:105980002C606C60BDE8384002F0E0BF38B50C46D2
:10599000054602F0CBFFD4E900323BB15A606268A1
:1059A0003AB11360BDE8384002F0D0BF6A60002A07
:1059B000F7D12B60BDE8384002F0C8BF0122436830
:1059C0001B68DA64704700BF2DE9F041134D84B0C5
:1059D000D5E90064207900F0D5FE02F0A7FF377802
:1059E0008046A7B901A802F0A9FFA27901AB0292F3
:1059F00061790B4A301D019502F078FF012322687E
:105A00003370D7622268074991602268536040462C
:105A100002F09CFF014804B0BDE8F0818CAF0000AB
:105A2000BD59000000040020F8B5D0E9004602F09E
:105A30007DFF2378054623B92846BDE8F84002F0EB
:105A400085BF307900F00AFD012807D0307900F0D9
:105A50008BFD2846BDE8F84002F078BF0027336888
:105A6000201D5F6002F060FF2770EFE770B505460C
:105A7000104B1C6802F05AFF04EB850393F90330C6
:105A80000D4A03F0070352F8232014F825100B4B9E
:105A900006461143186800F09FFB0123084A14F8DA
:105AA0002500116883400B433046BDE87040136009
:105AB00002F04CBF20AF00009C050100F81600204A
:105AC000F4160020394B2DE9F0471D6811F00068ED
:105AD00006460C4605EB80073BD1CA03C1F34143A0
:105AE00052D4334A3348C1F3035150F8239052F84B
:105AF00021A002F01BFF14F4002F2F4A08BF4FF023
:105B000000424AEA090A42EA0A0955F8262004F442
:105B10007F0322F0814222F4FE02134345F826302F
:105B200002F014FF14F0E06A18D002F0FFFE55F8FE
:105B30002630224AC4F3026423F08E4352F8242014
:105B40004AEA030345F8263049EA020902F0FEFE5C
:105B500004E014F0E06A4FF00009E6D115F82620C1
:105B600017497B7842EA090208689BB1B8F1000F37
:105B7000144918BF4FF4403100F074FB003018BFD7
:105B800001204042BDE8F0870F4A52F8239002F00E
:105B9000CDFEBAE7114600F05FFA18B901237B7019
:105BA000BDE8F0874FF0FF30ECE700BF20AF00000A
:105BB000B4050100C0050100000040809C05010003
:105BC000F8160020007FC3679005010070B50C46F1
:105BD000124B06461D6802F0A9FEA4B1012455F837
:105BE000263043F4002345F8263015F826108C4063
:105BF00021460B4B1A6854400C4054401C60BDE8D1
:105C0000704002F0A3BE012155F8263023F4002392
:105C100045F8263015F826309940EAE720AF000015
:105C2000802002402DE9F04102F000FF00240746E9
:105C300001260A4DDFF8288006FA04F33B4206D01D
:105C400058F8240018B103680BB121469847013475
:105C50002B68E4B29C42EFD9BDE8F0819017002098
:105C600058270020034A044B11680448196002F0C9
:105C7000DFBE00BFE0200240E02002605C17002091
:105C800000292DE9F041A8BF0F46CCB204F18053A2
:105C900003F501334FEA8302B8BF81F020473D4B43
:105CA0001168B8BF87F4C047034021EA00050646E3
:105CB00000F4E0203B40B0F5E02F82B043EA05035A
:105CC0004CD020B9794006F0807001420BD003F42B
:105CD000E021B1F5A02F2FD0B1F5C02F03D123F4CF
:105CE000E02343F4A02301252B4913600B68A54052
:105CF00013EA050806F4000223D1730206D504F165
:105D0000804303F50833C7F3805119708AB102F05C
:105D10000DFE214A39021368844623EA050325D57E
:105D20001D4A1D436046156002F010FEB8F1000FD9
:105D300008D102B0BDE8F08123F4E02343F4C0238E
:105D4000D1E7CAB97002F4D504F1804404F50834EF
:105D5000C7F38057277002B0BDE8F081D901C2D5E2
:105D600003F4E021B1F5A02FB6D1E5E7136002B04E
:105D7000BDE8F04102F0EABD019102F0D7FD0199C2
:105D80003A020B68844623EA0503C9D40B6002F08B
:105D9000DDFDD7E7007F077FD02002402DE9F04FDF
:105DA0008BB0824600F04CFC694B1B7803F0DAFEA6
:105DB0000E2800F2B480DFE800F0AEAEB2B2B2B2AC
:105DC000B2B2B2B2B2B2AEB90800052304209C460A
:105DD0001F27604A1360604B1B68C3F38153012B7C
:105DE00004D15E4A1268120E93401F43DFF8A0816F
:105DF000FF2143465A4ADFF89C91156808F10102D9
:105E000005F07F050544C9F800502A4403F8011B3A
:105E10009342FBD19AF800300024FE2B17D0504655
:105E200022460126FF2B06FA03F10AD09D42C0F05C
:105E300084809C4500F2818039427ED108F803209D
:105E40000C4350F8043F0132DBB2FE2BEAD10920AB
:105E500000F098FC434B01214348C3F800A0002503
:105E600002F076FDDFF830B1012207E004234BF8A1
:105E70002530D9F800300135AB4224D302FA05F3BE
:105E80003B42EEB2F2D1234218BF18F8053046F477
:105E9000C04106F1805606F501361ABF5AF82310A4
:105EA00032483248B6000192FFF7EAFE3368019AA1
:105EB00023F03F03336000234BF82530D9F800303E
:105EC0000135AB42DAD20024294D03A802F036FD99
:105ED000287803AB274A10210490274802F006FDDA
:105EE00006A802F079FD6B6806AA24492448CDE98A
:105EF000083402F079FD012220462249224E0B6827
:105F0000224D23F47C5343F400530B6032602A602B
:105F10000BB0BDE8F08F03F00BFE022811D00D4B43
:105F20000027D3F800C00CF1FF3054E70323094ADF
:105F30009C461360022007274DE702200BB0BDE806
:105F4000F08F0123034A9C461F461360002042E75E
:105F5000A82800203C170020B43F0050A83F005064
:105F600044130050FC16002040170020007FC76734
:105F700034AF0000655C000020170020255C0000A5
:105F80005C170020003009400C400940080009401F
:105F90000017002090170020582700202DE9F0411D
:105FA0000C4605464FF0FF31274802F00BFD002C50
:105FB00045D02378FE2B0FD0224624492448096877
:105FC000FF2B04D099422FD350F8233063BB52F8F3
:105FD000043FDBB2FE2BF3D100226A6023782A60F3
:105FE000FE2BAA601AD01A4E184FDFF86880FF2BDC
:105FF0000FD001216A6899400A4346F823506A602D
:1060000021683A68CBB2934203D856F823309D42B8
:1060100011D054F8043FDBB2FE2BE8D10A4802F05D
:10602000D9FC2846BDE8F0810025074802F0D2FCE3
:106030002846BDE8F0814046FFF722FEE9E7C5E9C2
:106040000044AC60EAE700BF401700209017002032
:1060500058270020007FC7672DE9F041C0B1DFF865
:106060006C80CFB2D8F80030BB4211D305460E4643
:1060700013484FF0FF3102F0A5FC124B53F82740B4
:1060800054B101240E4802F0A5FC2046BDE8F08181
:1060900002242046BDE8F08101216A68D8F800009A
:1060A000B9400A43874243F827506A60EAD853F858
:1060B00027309D42E6D131460348FFF7E1FDE1E795
:1060C0004017002058270020007FC7679017002046
:1060D00018B3012342688B4013421ED010B50C4602
:1060E000002122EA0303114A4360135D104AFF2B8B
:1060F00042F8241013D00F4A0F48126852F82310A8
:10610000FFF7BEFD04F1805404F50134A4002368B8
:10611000002023F03F03236010BD0220704744F0AD
:1061200020410548FFF7ACFDECE700BF0017002059
:1061300058270020FC160020007FC767416861B126
:1061400010B5044691FAA1F12046B1FA81F1FFF7AA
:10615000BFFF61680029F5D110BD70470E4B1B6869
:10616000994204D80D4B53F82130834201D00220CC
:10617000704770B515460C4602F0D8FB0122084E58
:10618000A240336805FA04F123EA0205294331608D
:1061900002F0DCFB002070BD901700205827002083
:1061A000D02002400A4B1B68994204D8094B53F88F
:1061B0002130834201D002207047003218BF0122F3
:1061C00001F1804101F508310A700020704700BFDD
:1061D0009017002058270020094A08B51268CBB252
:1061E000934204D8074A52F82330834201D0022058
:1061F00008BD4FF4E020FFF743FD002008BD00BFBD
:10620000901700205827002010B10160002070472F
:106210000220704700F1805303F501330E4A9B00C2
:10622000196812680D4BC240D2074FF0010203EA11
:1062300001030B4943EA000302FA00F00A6848BF71
:1062400043F48003104218BF43F4000383F020405E
:1062500080F4C040704700BF80200240007F077F6D
:10626000D020024010B5094CD3B22468A34204D810
:10627000074C54F82330834201D0022010BD084659
:106280001146FFF7FDFC002010BD00BF9017002055
:10629000582700200D4B1B68994204D80C4B53F82B
:1062A0002130834201D00220704701F1805101F575
:1062B000013189000B6822EAE27223F03F0302F009
:1062C0003F021A430A600020704700BF9017002069
:1062D00058270020704700BF032270B50B4D82B0D5
:1062E0002B680B4C00925E6820461C234FF04052F6
:1062F0000021B04701222B68009220464FF4007223
:106300005C6800210923A04702B070BDA401001001
:1063100000A00C400020704738B50A4B1C6864B1DF
:106320000546A3681D4205D0D4E903320021284662
:10633000984720B92468002CF3D1002038BD4FF0D5
:10634000FF3038BDE809002001280CBF07220022D9
:10635000014B00201A60704700000460F8B502F09D
:10636000E5FA1E4C054694F8E0307BB902201C4B40
:106370009C68A04706461020FFF7CEFF0EB1032011
:10638000A0472846BDE8F84002F0E0BAA36813F041
:10639000400608D1134A334611681348CF680122DA
:1063A0003421B84790B93221104B11481B68B1FB1A
:1063B000F3F1002908BF012102F092FA0C4802F023
:1063C00091FA2846BDE8F84002F0C0BA03F066FC36
:1063D000034B84F8E06002209C68CAE7E8090020CB
:1063E0003CAF0000A401001000A00C40D427002006
:1063F000180A0020012838B503D003F07FFC0020E4
:1064000038BD044603F028FC0128F6D00E4D03F0F9
:1064100039FCAB6885F8E0409B06F0D432240B4B86
:1064200005F130001968B4FBF1F4002C08BF012419
:1064300002F05AFA05F13000214602F051FA05F156
:10644000300002F04FFADAE7E8090020D4270020F4
:10645000014B9868704700BFE8090020024B1844C0
:1064600090F8EF00704700BFE8090020022905D02E
:10647000012814BF00204FF47A70704740F2EE23D9
:10648000012814BF00201846704700BF044B93F842
:10649000E6201AB1D3F8103103B11847704700BF96
:1064A000E809002050B14AB108B5C0E90212036101
:1064B00001460448FFF754FA002008BD6FF00200BF
:1064C000704700BFE809002010B5044602F02EFA1C
:1064D000094A111991F8E830013BDBB281F8E83044
:1064E00033B90121936801FA04F423EA04039360A9
:1064F00002F02CFA002010BDE809002008B50420A5
:1065000003F0AAFB831E012B1CD9012821D0134BB9
:106510001B68C3F38153032B11D041F28831022B46
:106520000CBF0B4632230E4A0E481168B3FBF1F143
:1065300002F0D6F9BDE808400A4802F0D3B94FF49A
:106540007A73F0E7FFF7C8FEBDE808400220FFF7C6
:10655000BBBFBDE80840FFF7BFBE00BFB43F00505F
:10656000D42700203C0A0020F8B5044602F0DEF9EA
:10657000224A0546131993F8EF000138C0B283F898
:10658000EF00F8B91E4B13F8246003EB84043706C0
:1065900064881CD51B4F20463B681B6A98473B68A4
:1065A00020469B6A98473B6820461B6B9847012111
:1065B000154B164A196013689907FCD506F03F0081
:1065C00012280CD9284602F0C1F90020F8BD730644
:1065D00008D502EB8404D4F804319847EEE7FFF7BE
:1065E000C3FFEFE7074F20463B689B6998473B682E
:1065F00020465B6B98470228F9D1DFE7E8090020C5
:10660000D0050100B80100102820086028200840AB
:1066100038B5044602F08AF90121084A01FA04F566
:106620001444916894F8E83029430133916084F868
:10663000E83002F08BF9002038BD00BFE8090020E7
:10664000F0B5464C85B094F8E75015B1002005B080
:10665000F0BD0127424E01A8F27C736884F8E62061
:10666000C4F8103184F8E77002F034F92A4601AB1F
:106670003C4904F10C0002958DF80450039502F09A
:10668000F3F82A4601AB384904F1300002F0ECF887
:106690002A46364901AB04F1540002F0E5F8B3682C
:1066A000384698473249334A0978337D1568C5F32F
:1066B0008155D3B9AB1E012B45D9012D3CD0022009
:1066C000FFF7A6FF042003F0C7FA012837D03223D2
:1066D000294A2A481168B3FBF1F3B3FBF1F102F048
:1066E000FFF8264802F0FEF81BE0032D08D0AB1E91
:1066F000012BE2D80220FFF78BFF42F2107306E075
:10670000022084F8E170FFF783FF4FF47A731A4A8E
:106710001A481168B3FBF1F102F0E2F8174802F0F1
:10672000E1F8174B1868C0F3800000288ED1FFF7FE
:106730006FFF002005B0F0BDFFF7CEFDF1E70020B0
:10674000FFF7CAFDEDE70220FFF762FF032D42F2DB
:10675000107308BF4FF47A73D9E700BFE80900202F
:106760003CAF0000D56200005D630000FD640000E6
:10677000A8280020B43F0050D42700203C0A002065
:10678000B03F00502DE9F041044602F0CFF8244F0D
:1067900006463A1992F8EF30591C82F8EF1003BB05
:1067A000204D15F8248008F03F0012282ED905EB63
:1067B000840418F0800F648819D01B4D20462B6884
:1067C000DB6998472B6820465B6A98472B68204610
:1067D000DB6A98470121154B154A196013689B071E
:1067E000FCD5304602F0B2F80020BDE8F08118F088
:1067F000400F0ED10C4D20462B685B6998472B68E3
:1068000020465B6B98470128F9D1EAE7FFF7BAFF0A
:10681000CDE707EB8404D4F8043101209847E0E782
:10682000E8090020D0050100B80100102820086008
:10683000282008402DE9F043012883B040F004816E
:10684000844CD4F8DC60012E40F0FB800223C4F8B5
:10685000DC3002F06BF93046FFF75EFD054600289C
:106860006DD102F0E1F87C4B80461D60304603F0AC
:10687000F3F9012800F0DF800021784B784A196095
:1068800094F8007194F8FF307F1A126818BF01273E
:106890000BB147F0020794F8FE300BB147F0040744
:1068A00094F8FA302BB16F4B4FF480601B681B6B70
:1068B000984794F8F9302BB16A4B4FF481601B680C
:1068C0001B6B98470126DFF89C91674AD9F8003086
:1068D00016609B6947F020009847644AA3681660D9
:1068E000DA0734D4DFF88891484604F04BF90428DD
:1068F0000646F9D0012840F08B80DFF8849103210F
:10690000D9F800305A485B6898475A4A0020136803
:1069100023F00303136003F0B5FF524B504A1B688A
:1069200012689B6B9847D9F8003031465B68504835
:106930009847504A136843F00303136010E0C4F80B
:10694000DC6002F005F9284603B0BDE8F0830020C2
:1069500003F098FFD9F80030414A9B6B12689847C2
