:1000000030350020A1A40000FDC90110FDC9011078
:10001000FDC90110FDC90110FDC90110FDC9011084
:10002000FDC90110FDC90110FDC90110FDC9011074
:0C003000FDC90110FDC901103BCA011000
:101000003C00000000000000000000003410000060
:1010100000000000000000000100000000000000CF
:081114000800000000000000CB
:10111C00341400003011000065C2011069C10110C7
:10112C001BC2011091BA011005BC0110E5BB0110E6
:04113C00330000007C
:10114000341400005411000071C20110A5B6011042
:1011500099BF011045B60110B5BA011025BC0110A8
:041160003400000057
:1011640024000000000000000000000080110000C6
:101174000000000000000000000000000800000063
:041184000000000067
:10118800240000000000000000000000A41100007E
:10119800000000000000000000000000080000003F
:0411A8000000000043
:1011AC00240000000000000000000000C811000036
:1011BC00000000000100000000000000080000001A
:0411CC00000000001F
:1011D00000000000C0070020040000000000000024
:1011E000000000002000000070100000300000002F
:1011F0001C110000E00700200400000000000000B7
:10120000000000000C000000301300001800000077
:1012100040110000E807002004000000000000006A
:101220000000000024000000481300001800000027
:10FFE800000000FF00000000FFFFFFFFFFFFFFFF12
:08FFF800FFFFFFFFFFFFFFFF09
:020000020000FC
:020000042000DA
:1004300000000000000000000000000000000000BC
:1004400000000000000000000000000000000000AC
:1005000000000000000000000000000000000000EB
:1005100000000000000000000000000000000000DB
:040000030000A4A1B4
:00000001FF
